Archive member included to satisfy reference by file (symbol)

c:/program files (x86)/gnu tools arm embedded/5.4 2016q2/bin/../lib/gcc/arm-none-eabi/5.4.1/../../../../arm-none-eabi/lib/armv7-m\libg.a(lib_a-itoa.o)
                              ..\obj\rs232.o (itoa)
c:/program files (x86)/gnu tools arm embedded/5.4 2016q2/bin/../lib/gcc/arm-none-eabi/5.4.1/../../../../arm-none-eabi/lib/armv7-m\libg.a(lib_a-utoa.o)
                              c:/program files (x86)/gnu tools arm embedded/5.4 2016q2/bin/../lib/gcc/arm-none-eabi/5.4.1/../../../../arm-none-eabi/lib/armv7-m\libg.a(lib_a-itoa.o) (__utoa)

Allocating common symbols
Common symbol       size              file

cnt_sensors         0x1               ..\obj\main.o
cel_fract_bits      0x1               ..\obj\main.o
subzero             0x1               ..\obj\main.o
cel                 0x1               ..\obj\main.o
gSensorIDs          0x20              ..\obj\ds18x20.o

Discarded input sections

 .text          0x00000000        0x0 ..\obj\delay.o
 .data          0x00000000        0x0 ..\obj\delay.o
 .bss           0x00000000        0x0 ..\obj\delay.o
 .text._delay_stop
                0x00000000       0x44 ..\obj\delay.o
 .text          0x00000000        0x0 ..\obj\rs232.o
 .data          0x00000000        0x0 ..\obj\rs232.o
 .bss           0x00000000        0x0 ..\obj\rs232.o
 .text          0x00000000        0x0 ..\obj\startup_stm32l1xx_md.o
 .data          0x00000000        0x0 ..\obj\startup_stm32l1xx_md.o
 .bss           0x00000000        0x0 ..\obj\startup_stm32l1xx_md.o
 .text          0x00000000        0x0 ..\obj\system_stm32l1xx.o
 .data          0x00000000       0x20 ..\obj\system_stm32l1xx.o
 .bss           0x00000000        0x0 ..\obj\system_stm32l1xx.o
 .text.SystemCoreClockUpdate
                0x00000000      0x158 ..\obj\system_stm32l1xx.o
 .text          0x00000000        0x0 ..\obj\main.o
 .data          0x00000000        0x0 ..\obj\main.o
Memory Configuration

Name             Origin             Length             Attributes
rom              0x08000000         0x00040000         xr
ram              0x20000000         0x00004000         xrw
*default*        0x00000000         0xffffffff

Linker script and memory map

                0x20004000                _eram = 0x20004000

.text           0x08000000      0xebc
 *(.isr_vector)
 .isr_vector    0x08000000       0xf4 ..\obj\startup_stm32l1xx_md.o
                0x08000000                g_pfnVectors
 *(.text*)
 .text._delay_init
                0x080000f4       0x50 ..\obj\delay.o
                0x080000f4                _delay_init
 .text._delay_init_us
                0x08000144       0x28 ..\obj\delay.o
                0x08000144                _delay_init_us
 .text._delay_init_ms
                0x0800016c       0x2c ..\obj\delay.o
                0x0800016c                _delay_init_ms
 .text._delay_us
                0x08000198       0x48 ..\obj\delay.o
                0x08000198                _delay_us
 .text._delay_ms
                0x080001e0       0x38 ..\obj\delay.o
                0x080001e0                _delay_ms
 .text.InitUART3
                0x08000218       0xbc ..\obj\rs232.o
                0x08000218                InitUART3
 .text.UART3_putc
                0x080002d4       0x30 ..\obj\rs232.o
                0x080002d4                UART3_putc
 .text.UART3_puts
                0x08000304       0x28 ..\obj\rs232.o
                0x08000304                UART3_puts
 .text.UART3_putint
                0x0800032c       0x2c ..\obj\rs232.o
                0x0800032c                UART3_putint
 .text.Default_Reset_Handler
                0x08000358       0x10 ..\obj\startup_stm32l1xx_md.o
                0x08000358                RTC_Alarm_IRQHandler
                0x08000358                EXTI2_IRQHandler
                0x08000358                TIM10_IRQHandler
                0x08000358                USB_HP_IRQHandler
                0x08000358                TIM6_IRQHandler
                0x08000358                PVD_IRQHandler
                0x08000358                EXTI3_IRQHandler
                0x08000358                EXTI0_IRQHandler
                0x08000358                I2C2_EV_IRQHandler
                0x08000358                SPI1_IRQHandler
                0x08000358                USB_FS_WKUP_IRQHandler
                0x08000358                DMA1_Channel4_IRQHandler
                0x08000358                ADC1_IRQHandler
                0x08000358                USART3_IRQHandler
                0x08000358                DMA1_Channel7_IRQHandler
                0x08000358                Reset_Handler
                0x08000358                LCD_IRQHandler
                0x08000358                TIM4_IRQHandler
                0x08000358                I2C1_EV_IRQHandler
                0x08000358                DMA1_Channel6_IRQHandler
                0x08000358                TIM3_IRQHandler
                0x08000358                RCC_IRQHandler
                0x08000358                DMA1_Channel1_IRQHandler
                0x08000358                EXTI15_10_IRQHandler
                0x08000358                Default_Reset_Handler
                0x08000358                TIM7_IRQHandler
                0x08000358                EXTI9_5_IRQHandler
                0x08000358                TIM9_IRQHandler
                0x08000358                TAMPER_STAMP_IRQHandler
                0x08000358                RTC_WKUP_IRQHandler
                0x08000358                SPI2_IRQHandler
                0x08000358                DMA1_Channel5_IRQHandler
                0x08000358                USB_LP_IRQHandler
                0x08000358                EXTI4_IRQHandler
                0x08000358                DMA1_Channel3_IRQHandler
                0x08000358                COMP_IRQHandler
                0x08000358                WWDG_IRQHandler
                0x08000358                TIM2_IRQHandler
                0x08000358                DAC_IRQHandler
                0x08000358                EXTI1_IRQHandler
                0x08000358                TIM11_IRQHandler
                0x08000358                USART2_IRQHandler
                0x08000358                I2C2_ER_IRQHandler
                0x08000358                DMA1_Channel2_IRQHandler
                0x08000358                FLASH_IRQHandler
                0x08000358                USART1_IRQHandler
                0x08000358                I2C1_ER_IRQHandler
 .text.Default_Handler
                0x08000368        0x8 ..\obj\startup_stm32l1xx_md.o
                0x08000368                DebugMon_Handler
                0x08000368                HardFault_Handler
                0x08000368                SysTick_Handler
                0x08000368                PendSV_Handler
                0x08000368                NMI_Handler
                0x08000368                UsageFault_Handler
                0x08000368                MemManage_Handler
                0x08000368                SVC_Handler
                0x08000368                BusFault_Handler
 .text.SystemInit
                0x08000370       0x68 ..\obj\system_stm32l1xx.o
                0x08000370                SystemInit
 .text.SetSysClock
                0x080003d8      0x120 ..\obj\system_stm32l1xx.o
 .text.main     0x080004f8      0x124 ..\obj\main.o
                0x080004f8                main
 .text.display_temp
                0x0800061c       0x54 ..\obj\main.o
                0x0800061c                display_temp
 .text.ow_input_pin_state
                0x08000670       0x20 ..\obj\onewire.o
                0x08000670                ow_input_pin_state
 .text.ow_parasite_enable
                0x08000690       0x34 ..\obj\onewire.o
                0x08000690                ow_parasite_enable
 .text.ow_parasite_disable
                0x080006c4       0x34 ..\obj\onewire.o
                0x080006c4                ow_parasite_disable
 .text.ow_init_port
                0x080006f8       0x3c ..\obj\onewire.o
                0x080006f8                ow_init_port
 .text.ow_reset
                0x08000734       0x60 ..\obj\onewire.o
                0x08000734                ow_reset
 .text.ow_bit_io
                0x08000794       0x78 ..\obj\onewire.o
                0x08000794                ow_bit_io
 .text.ow_byte_wr
                0x0800080c       0x4c ..\obj\onewire.o
                0x0800080c                ow_byte_wr
 .text.ow_byte_rd
                0x08000858       0x10 ..\obj\onewire.o
                0x08000858                ow_byte_rd
 .text.ow_rom_search
                0x08000868       0xc8 ..\obj\onewire.o
                0x08000868                ow_rom_search
 .text.ow_command
                0x08000930       0x54 ..\obj\onewire.o
                0x08000930                ow_command
 .text.crc8     0x08000984       0x80 ..\obj\crc8.o
                0x08000984                crc8
 .text.init_onewire_port
                0x08000a04        0xc ..\obj\ds18x20.o
                0x08000a04                init_onewire_port
 .text.DS18X20_meas_to_cel
                0x08000a10      0x104 ..\obj\ds18x20.o
                0x08000a10                DS18X20_meas_to_cel
 .text.DS18X20_find_sensor
                0x08000b14       0x54 ..\obj\ds18x20.o
                0x08000b14                DS18X20_find_sensor
 .text.search_sensors
                0x08000b68       0x80 ..\obj\ds18x20.o
                0x08000b68                search_sensors
 .text.DS18X20_start_meas
                0x08000be8       0x44 ..\obj\ds18x20.o
                0x08000be8                DS18X20_start_meas
 .text.DS18X20_read_meas
                0x08000c2c       0x80 ..\obj\ds18x20.o
                0x08000c2c                DS18X20_read_meas
 .text.RCC_conf_PLL
                0x08000cac      0x104 ..\obj\rcc_conf.o
                0x08000cac                RCC_conf_PLL
 .text.__itoa   0x08000db0       0x30 c:/program files (x86)/gnu tools arm embedded/5.4 2016q2/bin/../lib/gcc/arm-none-eabi/5.4.1/../../../../arm-none-eabi/lib/armv7-m\libg.a(lib_a-itoa.o)
                0x08000db0                __itoa
 .text.itoa     0x08000de0        0x4 c:/program files (x86)/gnu tools arm embedded/5.4 2016q2/bin/../lib/gcc/arm-none-eabi/5.4.1/../../../../arm-none-eabi/lib/armv7-m\libg.a(lib_a-itoa.o)
                0x08000de0                itoa
 .text.__utoa   0x08000de4       0x80 c:/program files (x86)/gnu tools arm embedded/5.4 2016q2/bin/../lib/gcc/arm-none-eabi/5.4.1/../../../../arm-none-eabi/lib/armv7-m\libg.a(lib_a-utoa.o)
                0x08000de4                __utoa
 *(.init)
 *(.fini)
 *crtbegin.o(.ctors)
 *crtbegin?.o(.ctors)
 *(EXCLUDE_FILE(*crtend.o *crtend?.o) .ctors)
 *(SORT(.ctors.*))
 *(.ctors)
 *crtbegin.o(.dtors)
 *crtbegin?.o(.dtors)
 *(EXCLUDE_FILE(*crtend.o *crtend?.o) .dtors)
 *(SORT(.dtors.*))
 *(.dtors)
 *(.rodata*)
 .rodata        0x08000e64       0x1d ..\obj\main.o
 *fill*         0x08000e81        0x3 
 .rodata        0x08000e84       0x10 ..\obj\ds18x20.o
 .rodata.str1.4
                0x08000e94       0x28 c:/program files (x86)/gnu tools arm embedded/5.4 2016q2/bin/../lib/gcc/arm-none-eabi/5.4.1/../../../../arm-none-eabi/lib/armv7-m\libg.a(lib_a-utoa.o)
                                 0x25 (size before relaxing)
 *(.eh_fram e*)

.glue_7         0x08000ebc        0x0
 .glue_7        0x08000ebc        0x0 linker stubs

.glue_7t        0x08000ebc        0x0
 .glue_7t       0x08000ebc        0x0 linker stubs

.vfp11_veneer   0x08000ebc        0x0
 .vfp11_veneer  0x08000ebc        0x0 linker stubs

.v4_bx          0x08000ebc        0x0
 .v4_bx         0x08000ebc        0x0 linker stubs

.iplt           0x08000ebc        0x0
 .iplt          0x08000ebc        0x0 ..\obj\delay.o

.rel.dyn        0x08000ebc        0x0
 .rel.iplt      0x08000ebc        0x0 ..\obj\delay.o

.ARM.extab
 *(.ARM.extab* .gnu.linkonce.armextab.*)
                0x08000ebc                __exidx_start = .

.ARM.exidx
 *(.ARM.exidx* .gnu.linkonce.armexidx.*)
                0x08000ebc                __exidx_end = .
                0x08000ebc                __etext = .
                0x08000ebc                _sidata = __etext

.data           0x20000000        0x0 load address 0x08000ebc
                0x20000000                __data_start__ = .
                0x20000000                _sdata = __data_start__
 *(vtable)
 *(.data*)
                0x20000000                . = ALIGN (0x4)
                [!provide]                PROVIDE (__preinit_array_start, .)
 *(.preinit_array)
                [!provide]                PROVIDE (__preinit_array_end, .)
                0x20000000                . = ALIGN (0x4)
                [!provide]                PROVIDE (__init_array_start, .)
 *(SORT(.init_array.*))
 *(.init_array)
                [!provide]                PROVIDE (__init_array_end, .)
                0x20000000                . = ALIGN (0x4)
                [!provide]                PROVIDE (__fini_array_start, .)
 *(SORT(.fini_array.*))
 *(.fini_array)
                [!provide]                PROVIDE (__fini_array_end, .)
 *(.jcr*)
                0x20000000                . = ALIGN (0x4)
                0x20000000                __data_end__ = .
                0x20000000                _edata = __data_end__

.igot.plt       0x20000000        0x0
 .igot.plt      0x20000000        0x0 ..\obj\delay.o

.bss            0x20000000       0x24
                0x20000000                . = ALIGN (0x4)
                0x20000000                __bss_start__ = .
                0x20000000                _sbss = __bss_start__
 *(.bss*)
 *(COMMON)
 COMMON         0x20000000        0x4 ..\obj\main.o
                0x20000000                cnt_sensors
                0x20000001                cel_fract_bits
                0x20000002                subzero
                0x20000003                cel
 COMMON         0x20000004       0x20 ..\obj\ds18x20.o
                0x20000004                gSensorIDs
                0x20000024                . = ALIGN (0x4)
                0x20000024                __bss_end__ = .
                0x20000024                _ebss = __bss_end__

.heap           0x20000024        0x0
                0x20000024                __end__ = .
                0x20000024                _end = __end__
                0x20000024                end = __end__
 *(.heap*)
                0x20000024                __HeapLimit = .

.co_stack       0x20000024      0x404
                0x20000028                . = ALIGN (0x8)
 *fill*         0x20000024        0x4 
 *(.co_stack .co_stack.*)
 .co_stack      0x20000028      0x400 ..\obj\startup_stm32l1xx_md.o
                0x20000028                pulStack
                0x20004000                __StackTop = (ORIGIN (ram) + LENGTH (ram))
                0x20003bfc                __StackLimit = (__StackTop - SIZEOF (.co_stack))
                [!provide]                PROVIDE (__stack, __StackTop)
                0x00000001                ASSERT ((__StackLimit >= __HeapLimit), region ram  overflowed with stack)
LOAD ..\obj\delay.o
LOAD ..\obj\rs232.o
LOAD ..\obj\startup_stm32l1xx_md.o
LOAD ..\obj\system_stm32l1xx.o
LOAD ..\obj\main.o
LOAD ..\obj\onewire.o
LOAD ..\obj\crc8.o
LOAD ..\obj\ds18x20.o
LOAD ..\obj\rcc_conf.o
START GROUP
LOAD c:/program files (x86)/gnu tools arm embedded/5.4 2016q2/bin/../lib/gcc/arm-none-eabi/5.4.1/armv7-m\libgcc.a
LOAD c:/program files (x86)/gnu tools arm embedded/5.4 2016q2/bin/../lib/gcc/arm-none-eabi/5.4.1/../../../../arm-none-eabi/lib/armv7-m\libg.a
LOAD c:/program files (x86)/gnu tools arm embedded/5.4 2016q2/bin/../lib/gcc/arm-none-eabi/5.4.1/../../../../arm-none-eabi/lib/armv7-m\libc.a
END GROUP
OUTPUT(1Wire_example.elf elf32-littlearm)

.debug_info     0x00000000     0x1bb9
 .debug_info    0x00000000      0x41f ..\obj\delay.o
 .debug_info    0x0000041f      0x42b ..\obj\rs232.o
 .debug_info    0x0000084a       0xc7 ..\obj\startup_stm32l1xx_md.o
 .debug_info    0x00000911      0x564 ..\obj\system_stm32l1xx.o
 .debug_info    0x00000e75      0x18b ..\obj\main.o
 .debug_info    0x00001000      0x42e ..\obj\onewire.o
 .debug_info    0x0000142e      0x116 ..\obj\crc8.o
 .debug_info    0x00001544      0x405 ..\obj\ds18x20.o
 .debug_info    0x00001949      0x270 ..\obj\rcc_conf.o

.debug_abbrev   0x00000000      0x87b
 .debug_abbrev  0x00000000       0xef ..\obj\delay.o
 .debug_abbrev  0x000000ef      0x101 ..\obj\rs232.o
 .debug_abbrev  0x000001f0       0x94 ..\obj\startup_stm32l1xx_md.o
 .debug_abbrev  0x00000284      0x147 ..\obj\system_stm32l1xx.o
 .debug_abbrev  0x000003cb       0xe5 ..\obj\main.o
 .debug_abbrev  0x000004b0      0x176 ..\obj\onewire.o
 .debug_abbrev  0x00000626       0x87 ..\obj\crc8.o
 .debug_abbrev  0x000006ad      0x11f ..\obj\ds18x20.o
 .debug_abbrev  0x000007cc       0xaf ..\obj\rcc_conf.o

.debug_aranges  0x00000000      0x218
 .debug_aranges
                0x00000000       0x48 ..\obj\delay.o
 .debug_aranges
                0x00000048       0x38 ..\obj\rs232.o
 .debug_aranges
                0x00000080       0x28 ..\obj\startup_stm32l1xx_md.o
 .debug_aranges
                0x000000a8       0x30 ..\obj\system_stm32l1xx.o
 .debug_aranges
                0x000000d8       0x28 ..\obj\main.o
 .debug_aranges
                0x00000100       0x68 ..\obj\onewire.o
 .debug_aranges
                0x00000168       0x20 ..\obj\crc8.o
 .debug_aranges
                0x00000188       0x60 ..\obj\ds18x20.o
 .debug_aranges
                0x000001e8       0x30 ..\obj\rcc_conf.o

.debug_ranges   0x00000000      0x188
 .debug_ranges  0x00000000       0x38 ..\obj\delay.o
 .debug_ranges  0x00000038       0x28 ..\obj\rs232.o
 .debug_ranges  0x00000060       0x18 ..\obj\startup_stm32l1xx_md.o
 .debug_ranges  0x00000078       0x20 ..\obj\system_stm32l1xx.o
 .debug_ranges  0x00000098       0x18 ..\obj\main.o
 .debug_ranges  0x000000b0       0x58 ..\obj\onewire.o
 .debug_ranges  0x00000108       0x10 ..\obj\crc8.o
 .debug_ranges  0x00000118       0x50 ..\obj\ds18x20.o
 .debug_ranges  0x00000168       0x20 ..\obj\rcc_conf.o

.debug_line     0x00000000     0x11e4
 .debug_line    0x00000000      0x222 ..\obj\delay.o
 .debug_line    0x00000222      0x1f4 ..\obj\rs232.o
 .debug_line    0x00000416       0x9c ..\obj\startup_stm32l1xx_md.o
 .debug_line    0x000004b2      0x214 ..\obj\system_stm32l1xx.o
 .debug_line    0x000006c6      0x1ff ..\obj\main.o
 .debug_line    0x000008c5      0x2c3 ..\obj\onewire.o
 .debug_line    0x00000b88      0x150 ..\obj\crc8.o
 .debug_line    0x00000cd8      0x2e5 ..\obj\ds18x20.o
 .debug_line    0x00000fbd      0x227 ..\obj\rcc_conf.o

.debug_str      0x00000000      0x950
 .debug_str     0x00000000      0x2df ..\obj\delay.o
                                0x335 (size before relaxing)
 .debug_str     0x000002df       0xe4 ..\obj\rs232.o
                                0x2e4 (size before relaxing)
 .debug_str     0x000003c3       0x9d ..\obj\startup_stm32l1xx_md.o
                                0x134 (size before relaxing)
 .debug_str     0x00000460      0x188 ..\obj\system_stm32l1xx.o
                                0x359 (size before relaxing)
 .debug_str     0x000005e8       0x6f ..\obj\main.o
                                0x1ba (size before relaxing)
 .debug_str     0x00000657       0xcd ..\obj\onewire.o
                                0x302 (size before relaxing)
 .debug_str     0x00000724       0x80 ..\obj\crc8.o
                                0x1ab (size before relaxing)
 .debug_str     0x000007a4      0x152 ..\obj\ds18x20.o
                                0x2d6 (size before relaxing)
 .debug_str     0x000008f6       0x5a ..\obj\rcc_conf.o
                                0x246 (size before relaxing)

.comment        0x00000000       0x6e
 .comment       0x00000000       0x6e ..\obj\delay.o
                                 0x6f (size before relaxing)
 .comment       0x0000006e       0x6f ..\obj\rs232.o
 .comment       0x0000006e       0x6f ..\obj\startup_stm32l1xx_md.o
 .comment       0x0000006e       0x6f ..\obj\system_stm32l1xx.o
 .comment       0x0000006e       0x6f ..\obj\main.o
 .comment       0x0000006e       0x6f ..\obj\onewire.o
 .comment       0x0000006e       0x6f ..\obj\crc8.o
 .comment       0x0000006e       0x6f ..\obj\ds18x20.o
 .comment       0x0000006e       0x6f ..\obj\rcc_conf.o

.ARM.attributes
                0x00000000       0x33
 .ARM.attributes
                0x00000000       0x33 ..\obj\delay.o
 .ARM.attributes
                0x00000033       0x33 ..\obj\rs232.o
 .ARM.attributes
                0x00000066       0x33 ..\obj\startup_stm32l1xx_md.o
 .ARM.attributes
                0x00000099       0x33 ..\obj\system_stm32l1xx.o
 .ARM.attributes
                0x000000cc       0x33 ..\obj\main.o
 .ARM.attributes
                0x000000ff       0x33 ..\obj\onewire.o
 .ARM.attributes
                0x00000132       0x33 ..\obj\crc8.o
 .ARM.attributes
                0x00000165       0x33 ..\obj\ds18x20.o
 .ARM.attributes
                0x00000198       0x33 ..\obj\rcc_conf.o
 .ARM.attributes
                0x000001cb       0x2d c:/program files (x86)/gnu tools arm embedded/5.4 2016q2/bin/../lib/gcc/arm-none-eabi/5.4.1/../../../../arm-none-eabi/lib/armv7-m\libg.a(lib_a-itoa.o)
 .ARM.attributes
                0x000001f8       0x2d c:/program files (x86)/gnu tools arm embedded/5.4 2016q2/bin/../lib/gcc/arm-none-eabi/5.4.1/../../../../arm-none-eabi/lib/armv7-m\libg.a(lib_a-utoa.o)

.debug_frame    0x00000000      0x67c
 .debug_frame   0x00000000       0xdc ..\obj\delay.o
 .debug_frame   0x000000dc       0xa8 ..\obj\rs232.o
 .debug_frame   0x00000184       0x44 ..\obj\startup_stm32l1xx_md.o
 .debug_frame   0x000001c8       0x7c ..\obj\system_stm32l1xx.o
 .debug_frame   0x00000244       0x4c ..\obj\main.o
 .debug_frame   0x00000290      0x15c ..\obj\onewire.o
 .debug_frame   0x000003ec       0x38 ..\obj\crc8.o
 .debug_frame   0x00000424      0x160 ..\obj\ds18x20.o
 .debug_frame   0x00000584       0x70 ..\obj\rcc_conf.o
 .debug_frame   0x000005f4       0x3c c:/program files (x86)/gnu tools arm embedded/5.4 2016q2/bin/../lib/gcc/arm-none-eabi/5.4.1/../../../../arm-none-eabi/lib/armv7-m\libg.a(lib_a-itoa.o)
 .debug_frame   0x00000630       0x4c c:/program files (x86)/gnu tools arm embedded/5.4 2016q2/bin/../lib/gcc/arm-none-eabi/5.4.1/../../../../arm-none-eabi/lib/armv7-m\libg.a(lib_a-utoa.o)
